:06156800FFFFFFFFFFFF83
:10139500410001005000376371757374000000004F
:1013A500000000000000235000276F6B00000000C4
:1013B500000000000000000000235000136361726C
:1013C500646964000000000000000000234100245F
:0913D50000410025004100230045
:1014D600D3EF9400EE940040147D6E7C00ED1D70F9
:0D14E600011CED4C70F7EF1F70E61E80E357
:0114F30022D6
:04155500F583E0FF3B
:081559008F993099FDC299221F
:10151000EFC3940A74809480EF50042430FF222497
:0315200037FF2270
:1005A4001214B512148912145A1213DF121561129F
:1005B40015367B017A0079477F52120F15AD07ED8E
:1005C40070F07B017A007947120B03AD07ED70E2FE
:1005D400900026F0900026E0C39404748094805028
:1005E40046E0FF2447F582E43400F583E0C4540F69
:1005F400FEEF25E02419F582E43400F583EEF09053
:100604000026E0FF2447F582E43400F583E0540F2C
:10061400FEEF25E0241AF582E43400F583EEF09031
:100624000026E004F080ADE4900026F0900026E07F
:0A063400FFC3940474809480504EBC
:10063E0074472FF582E43400F583E0FEC4540FFFB7
:10064E00900059F0EE540FA3F0121510900026E012
:10065E0025E02419F582E43400F583EFF090005A7A
:10066E00E0FF121510900026E025E0241AF582E432
:06067E003400F583EFF0EB
:10068400900026E004F080A4E4900026F090002678
:10069400E0FFC3941074809480501374132FF58278
:1006A400E43400121555900026E004F080DF7B014D
:1006B4007A007947120BCAAD07ED60030205B690C4
:1006C400006004F0A37400F0A37447F07BFF7A1574
:1006D40079687D017F60120C84AD07ED600302052B
:1006E400B6900003E064776003020776900026F07A
:1006F400900026E0C3940A74809480503DE0FF2467
:1007040004F582E43400F583E0FE743C2FF582E4C2
:100714003400F583EEF0900026E0FF2404F582E433
:100724003400F583E0FE74292FF582E43400F58368
:10073400EEF0900026E004F080B67B017A00793771
:100744007F0212090CAD07ED60030205B690002686
:10075400F0900026E0FFC39410748094805053748A
:10076400272FF582E43400121555900026E004F09A
:1007740080DF900003E0647270387B017A0079476F
:100784007F02120DF2AD07ED60030205B69000265C
:10079400F0900026E0FFC39410748094805013748A
:1007A400472FF582E43400121555900026E004F03A
:0807B40080DF1212F60205B607
:10145A00E4F584F585F591F592F5B175B2FF7580DD
:10146A00FF7590FF75B0FF75A0FF759850758920BC
:0F147A00758DFA758BFAD28ED2ACD2AFD2992281
:030023000212A026
:1012A000C0E0C083C082C0D075D000C006C0073087
:1012B0009837900000E599F0C298E0FFB4230D90B4
:1012C00000237401F0900001E4F0801D900001E023
:1012D000D3940F748094805010E0FE04F074032EB9
:1012E000F582E43400F583EFF0D007D006D0D0D0FB
:0612F00082D083D0E03241
:0D0F150090005BEFF0A3EBF0A3EAF0A3E97E
:100F22001215237D077F0D1212497D037F141215BE
:100F32004890005BE0900061F090007C7401F0A3A7
:100F4200F0A37400F0A37461F0A37401F0A3740021
:100F5200F0A3745FF07A0079611203A8EFFD339574
:100F6200E04D703790005FE07004A3E06410702BD6
:100F7200900061E0FE90005CE0FBA3E0FAA3E0F9E0
:100F8200EE121056900062E0FE90005CE0FBA3E0DF
:0D0F9200FAA3E0F9900001EE0210687FFE66
:010F9F00222F
:0B0B030090005BEBF0A3EAF0A3E9F028
:100B0E00E490005F121523E4FD7F0D1212497D80E3
:100B1E007F0E1215289000627493F0A37420F0904B
:100B2E00007C7402F07B01A314F0A37400F0A37494
:100B3E0062F0A3EBF0A37400F0A37460F07A007976
:100B4E00627F0C1203AC90005EEFF03395E04F70B5
:100B5E005EFDEDC3940474809480503A74622DF55A
:100B6E0082E43400F583E0FF90005BE0FBA3E0FA43
:100B7E00A3E0F98D82758300EF12106890005FE09C
:100B8E00FF74622DF582E43400F583E0FEEF6E9083
:100B9E00005FF00D80BC74622DF582E43400F583A5
:100BAE00E0FF90005FE06F600690005E74FEF07DE7
:0B0BBE00807F0E12154890005EE0FFE3
:010BC9002209
:0B0BCA0090005BEBF0A3EAF0A3E9F061
:100BD5009000607493F0A37470F0E4900066F0FDEB
:100BE500EDC3940474809480503790005BE0FBA3C0
:100BF500E0FAA3E0F98D82758300121029FF746273
:100C05002DF582E43400F583EFF0900066E0FF8D6A
:100C150082758300121029FEEF6E900066F00D803C
:100C2500BF9000767401F0A37400F0A37467F07BA5
:100C3500017A0079607D07120D5512152490007C0C
:100C45007409F0A37401F0A37400F0A37460F0A319
:100C55007401F0A37400F0A3745EF07B017A00794F
:100C6500607F0C1203ACEFFD3395E04D700E9000E4
:0E0C75005EE07004A3E064187002FF227FFEB0
:010C8300224E
:0B0C840090005DEBF0A3EAF0A3E9F0A4
:100C8F00900066EFF0A3EDF0E4FFEFC394067480DD
:100C9F009480502390005DE0FBA3E0FAA3E0F98F6E
:100CAF0082758300121029FE74682FF582E43400D8
:100CBF00F583EEF00F80D3E4FFEFC39406748094B6
:100CCF00805023900060E0FBA3E0FAA3E0F98F824D
:100CDF00758300121029FE746E2FF582E43400F52F
:100CEF0083EEF00F80D390007C740CF0A37401F0AE
:100CFF00A37400F0A37466F0A37401F0A37400F062
:100D0F00A37464F07B017A0079667F0E1203AC90B6
:100D1F000063EFF03395E04F70097F081211EFEF8A
:0E0D2F0020E30690006374FEF0900063E0FF86
:010D3D002293
:0B0DF20090005BEBF0A3EAF0A3E9F037
:100DFD009000607430F0A3EFF09000767401F0A3D2
:100E0D007400F0A37462F07A007960120D519000B5
:100E1D007C7404F0A37401F0A37400F0A37460F06B
:100E2D00A37401F0A37400F0A3745EF07B017A004B
:100E3D0079607F0C1203ACEFFD3395E04D703A9065
:100E4D00005EE07004A3E06490702EFEEEC394107B
:100E5D0074809480502574602EF582E43400F583FF
:100E6D00E0FD90005BE0FBA3E0FAA3E0F98E827554
:0B0E7D008300ED1210680E80D37FFE92
:010E88002247
:0B090C0090005BEBF0A3EAF0A3E9F021
:1009170090006074A0F0A3EFF09000767401F0A34C
:100927007400F0A37462F07B017A0079607D021293
:100937000D5590007C7404F0A37401F0A37400F0CB
:10094700A37460F0A37401F0A37400F0A3745EF0C5
:100957007B017A0079607F0C1203ACEFFD3395E0E1
:100967004D701690005EE07004A3E06404700A9076
:100977000060E0540F640A60027FFEEFFD3395E0EC
:100987004D6003020A1DFEEEC394107480948050DC
:100997002390005BE0FBA3E0FAA3E0F98E82758366
:1009A70000121029FD74602EF582E43400F583ED02
:1009B700F00E80D39000767401F0A37400F0A37456
:1009C70070F07B017A0079607D10120D5590007CE4
:1009D7007412F0A37401F0A37400F0A37460F0A381
:1009E7007401F0A37400F0A3745EF07B017A0079C0
:1009F700607F0C1203ACEFFD3395E04D701690004D
:100A07005EE07004A3E06404700A900060E0540F95
:060A1700640A60027FFE8C
:010A1D0022B6
:100A1E0090008AEBF0A3EAF0A3E9F0900089EDF0E4
:100A2E0090008FEFF0A3ED120D3E120386EFFD3313
:100A3E0095E04D701690008DE07004A3E064047094
:100A4E000A90008FE0540F640A60027FFEEFFD33C0
:100A5E0095E04D7064FEEEC3941074809480502324
:100A6E0090008AE0FBA3E0FAA3E0F98E8275830082
:100A7E00121029FD748F2EF582E43400F583EDF00B
:100A8E000E80D39000767401F0A37400F0A37493DB
:100A9E00F07B017A00798F7D04120D55E490008D64
:100AAE00F0A3F07406120388EFFD3395E0FCED64BD
:100ABE00FE7002ECF46002E4FFEFFD3395E04D7042
:100ACE003390008F74B0F0900089E0900090120D7A
:100ADE003E120386EFFD3395E04D701690008DE0CB
:100AEE007004A3E06404700A90008FE0540F640A4F
:040AFE0060027FFE15
:010B020022D0
:0507BC009000A1EDF02A
:1007C1009000A474C2F0A3EFF09000767401F0A33E
:1007D1007400F0A374A6F07B017A0079A47D021263
:1007E1000D5590007C7404F0A37401F0A37400F023
:1007F100A374A4F0A37401F0A37400F0A374A2F095
:100801007B017A0079A47F0C1203ACEFFD3395E0F4
:100811004D70169000A2E07004A3E06404700A9089
:1008210000A4E0540F640A60027FFEEFFD3395E0FF
:100831004D705C9000A4F0A3F0A3F0A3F07B0190B5
:10084100007604F0A37400F0A374A8F07A0079A4F0
:100851007D04120D5590007C7406F0A37401F0A381
:100861007400F0A374A4F0A37401F0A37400F0A3C6
:1008710074A2F07B017A0079A47F0C1203ACEFFD26
:100881003395E0FCED64FE7002ECF46002E4FFEFEE
:10089100FD3395E04D60037FFE229000A474B0F01B
:1008A1009000A1E09000A5F09000767401F0A3748F
:1008B10000F0A374A6F07B017A0079A47D02120DE9
:1008C1005590007C7404F0A37401F0A37400F0A3AC
:1008D10074A4F0A37401F0A37400F0A374A2F07BDC
:1008E100017A0079A47F0C1203ACEFFD3395E04D42
:1008F10070169000A2E07004A3E06404700A9000F6
:0A090100A4E0540F640A60027FFEB8
:01090B0022C9
:1012F60090005E7450F0E4A3F07B0190007604F059
:10130600A37400F0A37460F07A00795E7D02120D7A
:101316005590007C7404F0A37401F0A37400F0A34C
:10132600745EF0A37401F0A37400F0A3745CF07B08
:10133600017A00795E7F0C1203AC90005BEFF07FC0
:0113460000A6
:011347002283
:100D3E00F09000767401F0A37400F0A37491F07A31
:070D4E0000798F7B017D029B
:0E0D5500900072EBF0A3EAF0A3E9F0A3EDF03A
:100D63007D047F051215281212457D807F0A121516
:100D730048E4900079F0900075E0FF900079E0FE80
:100D8300C39F5021900072E0FBA3E0FAA3E0F98E29
:100D930082758300121029FD7F0912124990007990
:100DA300E004F080D17D037F011212499000797431
:100DB300FFF07F051211EF900079E014F0E060047A
:100DC300EF30E2EE7F221211EF900076E0FBA3E01A
:100DD300FAA3E0F9EF1210567F211211EF9000767B
:0F0DE300E0FBA3E0FAA3E0F9900001EF02106833
:1013DF00D29700C29700D297007D0F7F011212495A
:1013EF00007D3D7F111212497D1E7F2D121249E49F
:1013FF00FD7F2C1212497D8D7F2A1212497D3E7F6F
:0E140F002B1212497D407F151212497F0022D8
:0611E900AC07AB05E4FEBB
:1011EF00E4FEC294C293EF25E0547E4480FF7D0855
:1011FF00EDD39400748094804018EF548064807015
:10120F0003D38001C39295D294EF25E0FFC2941DC2
:10121F0080DE7D08EDD39400748094804011D294C9
:10122F00EE25E0FEA296E4334EFEC2941D80E5D279
:05123F0093D294AF06FC
:011244002287
:04124500E4FD7F0144
:10124900C294C293EF25E0547EFF7E08EED394004A
:10125900748094804018EF548064807003D38001B7
:10126900C39295D294EF25E0FFC2941E80DE7E08DA
:10127900EED39400748094804018ED54806480709B
:1012890003D38001C39295D294ED25E0FDC2941E4B
:0612990080DED293D29426
:01129F00222C
:0D1548001211E9AE07AF04EB4EFD0212498F
:05152300F07D087F08C7
:0E1528001211E9AE07AF04EBF45EFD021249AA
:10038600740490007CF0A37401F0A37400F0A374CD
:100396008FF0A37401F0A37400F0A3748DF07A00BB
:0603A600798F7B017F0C42
:1003AC00900079EBF0A3EAF0A3E9F0900078EFF07D
:1003BC0090008374FEF0E4A3F0A3F0EF24F460103B
:1003CC0024FE70169000847412F0A37410F0800A4E
:1003DC009000847477F0A37430F0900084E0448033
:1003EC00FD7F021212497D807F04121528121245DE
:1003FC007D807F0A121548E4900087F0A3F09000EE
:10040C007CE0FF900087E0FCA3E0FDC39FEC940030
:10041C005028900079E0FBA3E0FAA3E0F98D828CE0
:10042C0083121029FD7F09121249900088E004F014
:10043C0070CC900087E004F080C4900078E0FD7FE1
:10044C0001121249E0640C70077D807F0D12154873
:10045C009000877402F0A37458F07F041211EF908F
:10046C000086EFF0900088E024FFF0900087E034E5
:10047C00FFF0E07002A3E06011900086E0FF20E046
:10048C0009900085E0FEEF5E60D07D807F0D121537
:10049C0028900087E07002A3E070030205947F06A9
:1004AC001211EFEF541B600302058E900083F0A332
:1004BC00E0FF900086E05F30E00690008374FFF070
:1004CC00900078E0640C60030205947F0A1211EF2F
:1004DC00900086EFF07F0C1211EFEF5407FD6026B1
:1004EC00E024FFFFE434FFFEEF7803C333CE33CEBA
:1004FC00D8F97C002DFFEC3EF9900080E0FBA3E0E6
:10050C00FAA3E0C98016900086E075F008A4FF906D
:10051C000080E0FBA3E0FAA3E0F9E5F08FF0121005
:10052C008A900086E0700204F0900086E0D394126A
:10053C007480948040037412F0E4900087F0A3F070
:10054C00900086E0FFC3900088E09F900087E094C5
:10055C000050357F091211EF90007DE0FBA3E0FA0B
:10056C00A3E0F9900087E0FCA3E0F5828C83EF1206
:10057C001068900088E004F070C6900087E004F0EA
:10058C0080BE90008374FEF07D807F0C12154812A3
:07059C001245900083E0FF0F
:0105A3002235
:101536007F141211EFEF540370077D037F14121509
:01154600485C
:011547002281
:071561007D037F1402152831
:10002600F8040404F8000102020201000008FC00C2
:100036000000000203020000188444241800030292
:100046000202020008042424D80001020202010070
:1000560040B088FC80000000000302003C242424F9
:10006600C400010202020100F824242CC00001028F
:10007600020201000C04E41C04000000030000005E
:10008600D8242424D8000102020201003844444442
:10009600F80000030202010000E09CF08000020369
:1000A6000000030204FC2424D8000203020201001B
:1000B600F80404040C0001020202010004FC04041A
:1000C600F80002030202010004FC24740C0002037F
:1000D6000202030004FC24740C0002030200000068
:1000E60000000000000000020000000000001000F8
:1000F60000000000020000008868FF488822F22AFB
:10010600E622E00000000F000209040308080700C9
:10011600AEA8AFA8EE00FE02FE0000000F08040421
:100126000A04030007080E00FC464544FC10082795
:10013600C404FC000F0404040F00000008080700B4
:10014600FF21292D5755952D2121FF000F04040568
:100156000506060404040F0040444444FF44444496
:100166007D42C000000000000F00000004040300F0
:1001760008E70C000CF4545556740C00000F0400EC
:10018600000F050505050F008282BAAAAAABAAAA26
:10019600BA8282000F00000E0A0A0A0E00080F003B
:1001A60044535256527C53D2565242000101030523
:1001B6000109090F01010100482A987F284A10EF1A
:1001C60008F80800090B05050B00080502050800DC
:1001D6008C8596949596D4B496858C00000000087C
:1001E600080F00000000000098D4B388004848FFBC
:1001F60024A52600040402020808040305080E00CC
:100206007800FF08209C88FF8888000000000F0007
:100216000808080F080808002010FC031010FF103B
:10022600090A080000000F000000000102040F0088
:10023600482A987F284A10EF08F80800090B050598
:100246000B000805020508000488FF001010D03FC7
:10025600D012140001000F00080601000106080074
:10026600444424140CA74C142444440004030007FB
:1002760008080B080C01060000F2424242424242C4
:10028600427E0000000708080808080808080E0053
:1002960010FC0310D45F54545FD41000000F00000C
:1002A6000F050505050F0000F902F095999199953E
:1002B600F101FF000F0004020100030406080F000D
:1002C600202424A464FF64A4242420000202010044
:1002D600000F0000010202008868FF4802FAAFAA78
:1002E600AFFA020000000F000A0A0603060A0A0017
:1002F600084848C8484808FF08090A0008080807C7
:100306000404040003040E0040444444FF444444EF
:100316007D42C000000000000F000000040403003E
:100326001212EAA6A2BFA2A6EA12120008080B0A37
:100336000A0A0A0A0B08080011F20804FB4A4A4A8C
:10034600FA02FE0000070200070202020B0807007D
:10035600FC0000FF000222222222FE000108060104
:100366000004040404040F001011F200422212FAE1
:1003760006126200080403040808080B08080800AF
:10000300E4FDFCC3ED9FEC9E5015E4FBFA0BBB0033
:0F001300010AEB64C84A70F50DBD00010C80E4D2
:0100220022BB
:1013480075F00CEBA42CF582E435F0F583E58224E6
:0E13580026F582E5833400F583E493FF7D01E2
:10136600C280ED24FF9282E4FEEEC394087480945A
:10137600805015EF30E704D2838002C283EF25E068
:0E138600FFC284D2840E80E1D282D280D28354
:011394002236
:1014B500C2817F0A7E00120003D281E4FD7F2112E2
:1014C50013667FCD1213667F201213667F0C0213FD
:0114D50066B0
:0A14F400A907AA05E975F006A4FF98
:1014FE00AC07ED4440FFE4FD121366EC4480FF029E
:02150E00136662
:10148900E4FDFF1214FEE4FCECC39406748094801E
:101499005019E4FBEBC3945474809480500A7D0185
:0B14A900E4FF1213660B80EC0C80DDEA
:0114B4002215
:09141D00E054F0C4540FFB7D0201
:101426001214F4E4FCECC394067480948050061203
:1014360013480C80F0E975F006A4FFEA04FD1214C7
:10144600FE7C06ECC3940C748094805006121348FC
:031456000C80F017
:011459002270
:031127000BE4FDD9
:10112A001214F4E4FCECC3940C74809480501D7582
:10113A00F018EBA42CF582E435F0F583E58224FE61
:10114A00F582E583340012135F0C80D9E975F00645
:10115A00A4FFEA04FD1214FE7C0CECC394187480FC
:10116A009480501D75F018EBA42CF582E435F0F547
:10117A0083E58224FEF582E583340012135F0C8036
:01118A00D98B
:01118B002241
:10118C001214897B13E4FDFF12112A7F021211271E
:10119C007F041211270BE4FD7F0612112A900047E1
:1011AC00E054F0C4540FFBE4FD7F081214269000A9
:1011BC0047E0540FFEFBE4FD7F0912142690004813
:1011CC00E054F0C4540FFBE4FD7F0A121426900087
:0D11DC0048E0540FFEFBE4FD7F0B021426DB
:100FA0007B137D02E4FF12112A7B177D027F021260
:100FB000112A7B117D027F041214269000477F05C1
:100FC00012141D900047E0540FFEFB7D027F0612B5
:100FD00014269000487F0712141D900048E0540F1B
:100FE000FEFB7D027F08121426900049E054F0C4F5
:100FF000540FFB7D027F09121426900049E0540F24
:10100000FEFB7D027F0A12142690004AE054F0C4D1
:10101000540FFB7D027F0B12142690004AE0540F00
:09102000FEFB7D027F0C02142688
:1010A9007B187D04E4FF12112A0B7D047F021211C3
:1010B9002A7B117D047F0412142690004AE0FF5414
:1010C900F0C4540FFEEF540FFFEEC454F02FFF7518
:1010D900F064849000B7F0EF75F06484E5F075F082
:1010E9000A84A3F0EF75F00A84A3E5F0F0E4900018
:1010F900B6F09000B6E0C3940374809480501EE06B
:10110900FE2407FF74B72EF582E43400F583E0FB73
:0D1119007D041214269000B6E004F080D58D
:0111260022A6
:03000000020E8964
:0C0E8900787FE4F6D8FD758107020ED0DA
:10102900BB010CE58229F582E5833AF583E022507C
:1010390006E92582F8E622BBFE06E92582F8E222C6
:0D104900E58229F582E5833AF583E49322E0
:10105600BB010689828A83F0225002F722BBFE0179
:02106600F32273
:10106800F8BB010DE58229F582E5833AF583E8F0BE
:10107800225006E92582C8F622BBFE05E92582C86A
:02108800F22252
:10108A00BB010A89828A83F0E5F0A3F0225006F7B1
:0F109A0009A7F01922BBFE06F3E5F009F31922AE
:100E95000205A4E493A3F8E493A34003F68001F2CA
:100EA50008DFF48029E493A3F85407240CC8C3335E
:100EB500C4540F4420C8834004F456800146F6DF2D
:100EC500E4800B0102040810204080901395E47E15
:100ED500019360BCA3FF543F30E509541FFEE49322
:100EE500A360010ECF54C025E060A840B8E493A3E9
:100EF500FAE493A3F8E493A3C8C582C8CAC583CA14
:100F0500F0A3C8C582C8CAC583CADFE9DEE780BECB
:0113DE00000E
:00000001FF
