:100D0600BFA8B5C4C0E0D0CD3A00255800BFA8D0D2
:100D1600F2C1D0BAC5A3BA00BFA8B6C1BFE9A3BA8B
:100D2600000A0012345678EDCBA9871234567801A2
:0D0D3600FE01FE00000001FFFFFFFFFFFFB8
:100DE000D3EF9400EE940040147D6E7C00ED1D70F6
:0D0DF000011CED4C70F7EF1F70E61E80E354
:010DFD0022D3
:10035F00120D80120CC8120E3B120E107B007A0089
:10036F0079087F52120BE58F22E52270EF7BFF7A1F
:10037F000D7906120065E4F52374082523F8E67558
:10038F002400F5257BFF7A0D7910852429F52A1293
:10039F0000650523E523C3940240DE7B007A0079D4
:1003AF00081209A38F22E52270B27BFF7A0D791311
:1003BF00120065E4F52374082523F8E6752400F58B
:1003CF00257BFF7A0D7910852429F52A1200650502
:1003DF0023E523C3940440DE7B007A007908120AD8
:1003EF001E8F22E522600302036B752B00752C0014
:1003FF00752D087BFF7A0D793D7D017F60120A997B
:10040F008F22E522600302036B7BFF7A0D79297F30
:10041F00011208618F22E522600302036B7B007AD1
:10042F000079087F52120BE58F22E52270EF7B00D7
:10043F007A0079081209A38F22E52270E07B007AF7
:10044F00007908120A1E8F22E52270D1752B0075D4
:10045F002C00752D087BFF7A0D793D7D017F601291
:10046F000A998F22E52270B57BFF7A0D79397D01CC
:10047F007FC01206918F22E52270A27D027F0112AA
:10048F000B0E8F22E52270957B007A0079087F0290
:10049F00120B828F22E52270847BFF7A0D791E1258
:1004AF000065E4F52374082523F8E6752400F52587
:1004BF007BFF7A0D7910852429F52A120065052313
:1004CF00E523C3941040DE7BFF7A0D792712006578
:1004DF00C2A67F647E00120DE0D2A67F647E00125A
:1004EF000DE0C2A67FC87E00120DE0D2A6120D430A
:0304FF0002042CC8
:100D8000E4F584F585F591F592F5B175B2FF7580BE
:100D9000FF7590FF75B0FF75A0FF7589217598509C
:100DA000758DFA758BFAF58CF58AD28CD2A9D28E14
:090DB000D299D2AFD2ACD2982244
:080BE5008F268B278A2889293D
:100BED00120DFE7D077F0D120C8D7D037F14120EED
:100BFD002285262C754701754800754900754A2CCC
:100C0D00754B00754C00754D2A7A00792C12051B19
:100C1D00EF7023E52B6410452A701BAB27AA28A97A
:100C2D0029E52C1207BFAB27AA28A929900001E5B9
:080C3D002D1207D180027FFE99
:010C4500228C
:0609A3008B268A2789283B
:1009A900E4F52A120DFEE4FD7F0D120C8D7D807F8A
:1009B9000E120E02752D93752E207547027548008B
:1009C900754900754A2D754B00754C00754D2B7B8B
:1009D900007A00792D7F0C12051F8F29E529702BCC
:1009E900FF742D2FF8E6AB26AA27A9288F827583D5
:1009F900001207D1742D2FF8E6622A0FBF04E274A2
:100A09002D2FF8E6652A60037529FE7D807F0E1279
:040A19000E22AF29D1
:010A1D0022B6
:060A1E008B268A278928BF
:100A2400752B93752C70E4F531FFAB26AA27A92802
:100A34008F82758300120792FE742D2FF8A6068FFD
:100A44008275830012079262310FBF04DD75420084
:100A54007543007544327B007A00792B7D071209B7
:100A64002D120DFE754709754800754900754A2B0E
:100A7400754B00754C00754D297B007A00792B7FEE
:100A84000C12051FEF700BE52A641845297003FF4B
:040A940080027FFE5F
:010A9800223B
:060A99008B288A29892A3E
:100A9F008F318D32E4FFAB28AA29A92A8F82758363
:100AAF0000120792FE74332FF8A6060FBF06E7E475
:100ABF00FFAB2BAA2CA92D8F82758300120792FEF4
:100ACF0074392FF8A6060FBF06E775470C75480057
:100ADF00754900754A31754B00754C00754D2F7B6C
:100AEF00007A0079317F0E12051F8F2EE52E7009C7
:0E0AFF007F08120C4CEF20E303752EFEAF2E85
:010B0D0022C5
:060B82008B268A2789285A
:100B8800752B308F2C75420075430075442D7A0003
:100B9800792B120929754704754800754900754A6B
:100BA8002B754B00754C00754D297B007A00792B0D
:100BB8007F0C12051FEF7022E52A64904529701AF0
:100BC800FE742B2EF8E6AB26AA27A9288E827583F9
:0C0BD800001207D10EBE10E980027FFE63
:010BE40022EE
:060861008B268A2789287E
:10086700752BA08F2C75420075430075442D7B00B6
:100877007A00792B7D0212092D754704754800759A
:100887004900754A2B754B00754C00754D297B0047
:100897007A00792B7F0C12051FEF7010E52A64048C
:1008A70045297008E52B540F640A60027FFEEF703C
:1008B70063FEAB26AA27A9288E82758300120792AA
:1008C700FD742B2EF8A6050EBE10E7754200754382
:1008D7000075443B7B007A00792B7D1012092D753A
:1008E7004712754800754900754A2B754B00754CC2
:1008F70000754D297B007A00792B7F0C12051FEFBD
:100907007010E52A640445297008E52B540F640A22
:0409170060027FFEFD
:01091B0022B9
:080691008D268B278A28892998
:100699008F2C85262D75420075430075442E7B00ED
:1006A9007A00792C7D0212092D7547047548007569
:1006B9004900754A2C754B00754C00754D2A7B0015
:1006C9007A00792C7F0C12051FEF7010E52B64045A
:1006D900452A7008E52C540F640A60027FFEEF700A
:1006E90057FEAB27AA28A9298E8275830012079283
:1006F900FD742C2EF8A6050EBE10E7754200754351
:10070900007544307B007A00792C7D0412092DE4B0
:10071900F52AF52B754706F548754900754A2CF5F4
:100729004B754C00754D2AFB7A00792C7F0C12050C
:100739001FEF64FE6002E4FFEF704D752CB0852653
:100749002DF54275430075442EFB7A00792C7D0204
:1007590012092D754704754800754900754A2C75AD
:100769004B00754C00754D2A7B007A00792C7F0C63
:1007790012051FEF7010E52B6404452A7008E52C5B
:08078900540F640A60027FFEB8
:010791002245
:020B0E008D2632
:100B10007529C28F2A12091C120502EF7010E528F0
:100B2000640445277008E529540F640A60027FFEBB
:100B3000EF7027F529F52AF52BF52CF542754300C2
:100B400075442DFB7A0079297D0412092D7547061D
:100B5000120505EF64FE6002E4FFEF60037FFE22F2
:100B60007529B085262A12091C120502EF7010E5BE
:100B700028640445277008E529540F640A60027F41
:010B8000FE76
:010B81002251
:100D4300752950E4F52AF54275430075442BFB7A67
:100D53000079297D0212092D7547047548007549EC
:100D630000754A29754B00754C00754D277B007A39
:0C0D73000079297F0C12051F8F267F00DD
:010D7F002251
:10091C0075420075430075442B7A0079297B007D64
:01092C0002C8
:08092D008B3E8A3F89408D4199
:100935007D047F05120E02120C897D807F0A120E3E
:1009450022E4F545E545C395415019AB3EAA3FA9BB
:1009550040854582758300120792FD7F09120C8D33
:10096500054580E07D037F01120C8D7545FF7F05F0
:10097500120C4C1545E5456004EF30E2F17F22127B
:100985000C4CAB42AA43A944EF1207BF7F21120CBE
:0E0995004CAB42AA43A944900001EF0207D1E7
:100CC800D29700C29700D297007D0F7F01120C8D3A
:100CD800007D3D7F11120C8D7D1E7F2D120C8DE441
:100CE800FD7F2C120C8D7D8D7F2A120C8D7D3E7F11
:0E0CF8002B120C8D7D407F15120C8D7F00227B
:060C4600AC07AB05E4FE63
:100C4C00E4FEC294C293EF25E0547E4480FF7D08FD
:100C5C00EF30E703D38001C39295D294EF25E0FFE8
:100C6C00C294DDEC7D08D294EE25E0FEA296E4332E
:0C0C7C004206C294DDF0D293D294AF0681
:010C88002249
:040C8900E4FD7F0106
:100C8D00C294C293EF25E0547EFF7E08EF30E70358
:100C9D00D38001C39295D294EF25E0FFC294DEEC90
:100CAD007E08ED30E703D38001C39295D294ED25F4
:0A0CBD00E0FDC294DEECD293D29465
:010CC700220A
:0D0E2200120C46AE07AF04EB4EFD020C8D26
:040DFE007D087F08E5
:0E0E0200120C46AE07AF04EBF45EFD020C8D41
:10050200754704754800754900754A29754B007591
:0D0512004C00754D277A0079297B007F0C85
:08051F008F438B448A45894695
:10052700754EFEE4F54FF550E54324F4600C24FEC8
:10053700700E754F127550108006754F77755030D5
:10054700E54F4480FD7F02120C8D7D807F04120EE3
:1005570002120C897D807F0A120E22E4F552F553B0
:10056700C3E5539547E5529400501FAB44AA45A9EC
:1005770046855382855283120792FD7F09120C8D9F
:100587000553E55370DA055280D6AD437F01120C4F
:100597008DE543B40C077D807F0D120E2275520244
:1005A7007553587F04120C4C8F51E5531553700245
:1005B7001552E55345526009E55120E00455506056
:1005C700E27D807F0D120E02E5534552700302064D
:1005D700847F06120C4CEF541B6003020681F54E14
:1005E700E551554F30E003754EFFE543640C60035A
:1005F7000206847F0A120C4C8F517F0C120C4CEFB1
:100607005407FD6021E55124FFFFE434FFFEEF7836
:1006170003C333CE33CED8F97C002DFFEC3EAB4B72
:10062700AA4CA94D800FE55175F008A4FFAB4BAA62
:100637004CA94DE5F08FF01207F3E55170037551A2
:1006470001E551D394124003755112E4F552F55365
:10065700C3E5539551E552940050227F09120C4C83
:10066700AB48AA49A94A855382855283EF1207D11D
:100677000553E55370DA055280D6754EFE7D807FAF
:090687000C120E22120C89AF4E78
:010690002247
:100E10007F14120C4CEF540370077D037F14120EE5
:010E200022AF
:010E210022AE
:070E3B007D037F14020E028B
:03000000020E2FBE
:0C0E2F00787FE4F6D8FD75815302035F64
:10079200BB010CE58229F582E5833AF583E022501C
:1007A20006E92582F8E622BBFE06E92582F8E22266
:0D07B200E58229F582E5833AF583E4932280
:1007BF00BB010689828A83F0225002F722BBFE0119
:0207CF00F32213
:1007D100F8BB010DE58229F582E5833AF583E8F05E
:1007E100225006E92582C8F622BBFE05E92582C80A
:0207F100F222F2
:1007F300BB010A89828A83F0E5F0A3F0225006F751
:0F08030009A7F01922BBFE06F3E5F009F319224D
:10000300E5352429F8E605352278263007027829D4
:10001300E475F00112082B0208122000EB7F2ED2A8
:10002300008018EF540F2490D43440D4FF30040BD5
:10003300EF24BFB41A0050032461FFE536600215B4
:10004300360539E5397002053830070D7826E47531
:10005300F00112082BEF0207BF020DB97403D20798
:100063008003E4C207F5358B268A278928E4F53611
:10007300F538F539E53660077F2012003E80F575C7
:1000830037FFC201C200C202C203C205C206C208D0
:1000930012000CFF700D3007057F0012004FAF39BF
:1000A300AE3822B4255FC2D5C20412000CFF24D09F
:1000B300B40A00501A75F00A783630D50508B6FF31
:1000C3000106C6A426F620D5047002D20380D924E3
:1000D300CFB41A00EF5004C2E5D20402024FD2019A
:1000E30080C6D20080C0D20280BCD2D580BAD205ED
:1000F30080B47F2012003E2002077401B536004011
:10010300F1120003FF12003E020077D208D20680EC
:1001130095120003FB120003FA120003F94A4B7015
:100123000679207A037BFF20022EE536602A7E00C3
:100133008E8275830012079260060EEE653770F0AB
:10014300C2D5EBC0E0EAC0E0E9C0E0EE120296D00F
:10015300E0F9D0E0FAD0E0FB120812FF60AAEBC08E
:10016300E0EAC0E0E9C0E012003ED0E02401F9D0AB
:10017300E03400FAD0E0FBE5370460DCD537D98002
:10018300877BFF7A027992D202809C791080027970
:1001930008C206C2088008D2D5790A8004790AC247
:1001A300D5E537047002F537E4FAFDFEFF120003CC
:1001B300FC7B08200113120003FD7B1030000A12A0
:1001C3000003FE120003FF7B20EC3382D592D5504F
:1001D30013C3E43000069FFFE49EFEE42001039D69
:1001E300FDE49CFCE4CBF8C201EC700CCFCECDCC8B
:1001F300E824F8F870F38017C3EF33FFEE33FEED16
:1002030033FDEC33FCEB33FB994002FB0FD8E9EBF6
:10021300300105F8D0E0C448B201C0E00AEC4D4E0D
:100223004F78207B0070C2EAB5370040BCC0E012B3
:100233000298D0F0D0E0200104C4C0E0C4B201C0F1
:10024300F0120027D0F0D5F0EB02007712083B0143
:100253001453018E5800E54C00E14201924F019A7C
:0F02630044019A4900FA4301A0550184460184E1
:100272004501844703405000E92D00ED2E01102B6B
:1002820000F123010E2003292A00A94800000108D9
:100292003F3F3F00790AA2D5200314300509B91067
:1002A200020404B9080104A2D52006025001042068
:1002B20002689202B536005034C0E07F2030031944
:1002C2007F30A20272067205500F1202EFC202C202
:1002D20006C205C2087F30800F300503E9C0E01274
:1002E200003E300503D0E0F9D0E0B536CC3005173A
:1002F2007F30B9100C12003E7F583004077F78809F
:1003020003B9080312003E3002057F2D02003E7F32
:10031200202008F87F2B2006F322920280CF286E3D
:10032200756C6C2900D2011200033001F8C2017809
:100332003630D50108F60200A92D50434958120063
:10034200032403B405004001E490033B9312002F01
:0D035200743A12002FD20375360402018E9A
:10081200BB010689828A83E0225002E722BBFE02E4
:09082200E32289828A83E4932217
:10082B00FAE6FB0808E6F925F0F618E6CA3AF622CE
:10083B00D083D082F8E4937012740193700DA3A34C
:10084B0093F8740193F5828883E473740293686060
:06085B00EFA3A3A380DF60
:100DB900EFB40A07740D120DC4740A309811A8997A
:100DC900B8130CC2983098FDA899C298B811F6309A
:070DD90099FDC299F5992272
:00000001FF
